{
	"lec.sol": {
		"lec": {
			"abi": [
				{
					"inputs": [],
					"name": "addr",
					"outputs": [
						{
							"internalType": "address",
							"name": "",
							"type": "address"
						}
					],
					"stateMutability": "view",
					"type": "function"
				},
				{
					"inputs": [],
					"name": "ags1",
					"outputs": [
						{
							"internalType": "uint256",
							"name": "",
							"type": "uint256"
						}
					],
					"stateMutability": "view",
					"type": "function"
				},
				{
					"inputs": [],
					"name": "b",
					"outputs": [
						{
							"internalType": "bool",
							"name": "",
							"type": "bool"
						}
					],
					"stateMutability": "view",
					"type": "function"
				},
				{
					"inputs": [],
					"name": "gas",
					"outputs": [
						{
							"internalType": "uint256",
							"name": "",
							"type": "uint256"
						}
					],
					"stateMutability": "view",
					"type": "function"
				},
				{
					"inputs": [],
					"name": "setGas",
					"outputs": [],
					"stateMutability": "nonpayable",
					"type": "function"
				},
				{
					"inputs": [
						{
							"internalType": "uint256",
							"name": "_gas",
							"type": "uint256"
						}
					],
					"name": "setGas1",
					"outputs": [],
					"stateMutability": "nonpayable",
					"type": "function"
				}
			],
			"devdoc": {
				"kind": "dev",
				"methods": {},
				"version": 1
			},
			"evm": {
				"assembly": "    /* \"lec.sol\":58:375  contract lec{... */\n  mstore(0x40, 0x80)\n    /* \"lec.sol\":92:97  false */\n  0x00\n    /* \"lec.sol\":76:97  bool public b = false */\n  dup1\n  exp(0x0100, 0x00)\n  dup2\n  sload\n  dup2\n  0xff\n  mul\n  not\n  and\n  swap1\n  dup4\n  iszero\n  iszero\n  mul\n  or\n  swap1\n  sstore\n  pop\n    /* \"lec.sol\":125:167  0xd9145CCE52D386f254917e481eB44e9943F39138 */\n  0xd9145cce52d386f254917e481eb44e9943f39138\n    /* \"lec.sol\":103:167  address public addr = 0xd9145CCE52D386f254917e481eB44e9943F39138 */\n  0x00\n  exp(0x0100, 0x01)\n  dup2\n  sload\n  dup2\n  0xffffffffffffffffffffffffffffffffffffffff\n  mul\n  not\n  and\n  swap1\n  dup4\n  0xffffffffffffffffffffffffffffffffffffffff\n  and\n  mul\n  or\n  swap1\n  sstore\n  pop\n    /* \"lec.sol\":194:200  1 gwei */\n  0x3b9aca00\n    /* \"lec.sol\":173:200  uint256 public gas = 1 gwei */\n  0x01\n  sstore\n    /* \"lec.sol\":228:235  1 ether */\n  0x0de0b6b3a7640000\n    /* \"lec.sol\":206:235  uint256 public ags1 = 1 ether */\n  0x02\n  sstore\n    /* \"lec.sol\":58:375  contract lec{... */\n  callvalue\n  dup1\n  iszero\n  tag_1\n  jumpi\n  0x00\n  dup1\n  revert\ntag_1:\n  pop\n  dataSize(sub_0)\n  dup1\n  dataOffset(sub_0)\n  0x00\n  codecopy\n  0x00\n  return\nstop\n\nsub_0: assembly {\n        /* \"lec.sol\":58:375  contract lec{... */\n      mstore(0x40, 0x80)\n      callvalue\n      dup1\n      iszero\n      tag_1\n      jumpi\n      0x00\n      dup1\n      revert\n    tag_1:\n      pop\n      jumpi(tag_2, lt(calldatasize, 0x04))\n      shr(0xe0, calldataload(0x00))\n      dup1\n      0x24811914\n      eq\n      tag_3\n      jumpi\n      dup1\n      0x3d3382bd\n      eq\n      tag_4\n      jumpi\n      dup1\n      0x4af79001\n      eq\n      tag_5\n      jumpi\n      dup1\n      0x4df7e3d0\n      eq\n      tag_6\n      jumpi\n      dup1\n      0x6ca7c216\n      eq\n      tag_7\n      jumpi\n      dup1\n      0x767800de\n      eq\n      tag_8\n      jumpi\n    tag_2:\n      0x00\n      dup1\n      revert\n        /* \"lec.sol\":242:296  function setGas() public{... */\n    tag_3:\n      tag_9\n      tag_10\n      jump\t// in\n    tag_9:\n      stop\n        /* \"lec.sol\":206:235  uint256 public ags1 = 1 ether */\n    tag_4:\n      tag_11\n      tag_12\n      jump\t// in\n    tag_11:\n      mload(0x40)\n      tag_13\n      swap2\n      swap1\n      tag_14\n      jump\t// in\n    tag_13:\n      mload(0x40)\n      dup1\n      swap2\n      sub\n      swap1\n      return\n        /* \"lec.sol\":301:372  function setGas1(uint256 _gas) public{... */\n    tag_5:\n      tag_15\n      0x04\n      dup1\n      calldatasize\n      sub\n      dup2\n      add\n      swap1\n      tag_16\n      swap2\n      swap1\n      tag_17\n      jump\t// in\n    tag_16:\n      tag_18\n      jump\t// in\n    tag_15:\n      stop\n        /* \"lec.sol\":76:97  bool public b = false */\n    tag_6:\n      tag_19\n      tag_20\n      jump\t// in\n    tag_19:\n      mload(0x40)\n      tag_21\n      swap2\n      swap1\n      tag_22\n      jump\t// in\n    tag_21:\n      mload(0x40)\n      dup1\n      swap2\n      sub\n      swap1\n      return\n        /* \"lec.sol\":173:200  uint256 public gas = 1 gwei */\n    tag_7:\n      tag_23\n      tag_24\n      jump\t// in\n    tag_23:\n      mload(0x40)\n      tag_25\n      swap2\n      swap1\n      tag_14\n      jump\t// in\n    tag_25:\n      mload(0x40)\n      dup1\n      swap2\n      sub\n      swap1\n      return\n        /* \"lec.sol\":103:167  address public addr = 0xd9145CCE52D386f254917e481eB44e9943F39138 */\n    tag_8:\n      tag_26\n      tag_27\n      jump\t// in\n    tag_26:\n      mload(0x40)\n      tag_28\n      swap2\n      swap1\n      tag_29\n      jump\t// in\n    tag_28:\n      mload(0x40)\n      dup1\n      swap2\n      sub\n      swap1\n      return\n        /* \"lec.sol\":242:296  function setGas() public{... */\n    tag_10:\n        /* \"lec.sol\":282:289  10 gwei */\n      0x02540be400\n        /* \"lec.sol\":276:279  gas */\n      0x01\n        /* \"lec.sol\":276:289  gas = 10 gwei */\n      dup2\n      swap1\n      sstore\n      pop\n        /* \"lec.sol\":242:296  function setGas() public{... */\n      jump\t// out\n        /* \"lec.sol\":206:235  uint256 public ags1 = 1 ether */\n    tag_12:\n      sload(0x02)\n      dup2\n      jump\t// out\n        /* \"lec.sol\":301:372  function setGas1(uint256 _gas) public{... */\n    tag_18:\n        /* \"lec.sol\":355:365  msg.sender */\n      caller\n        /* \"lec.sol\":348:352  addr */\n      0x00\n      0x01\n        /* \"lec.sol\":348:365  addr = msg.sender */\n      0x0100\n      exp\n      dup2\n      sload\n      dup2\n      0xffffffffffffffffffffffffffffffffffffffff\n      mul\n      not\n      and\n      swap1\n      dup4\n      0xffffffffffffffffffffffffffffffffffffffff\n      and\n      mul\n      or\n      swap1\n      sstore\n      pop\n        /* \"lec.sol\":301:372  function setGas1(uint256 _gas) public{... */\n      pop\n      jump\t// out\n        /* \"lec.sol\":76:97  bool public b = false */\n    tag_20:\n      0x00\n      dup1\n      sload\n      swap1\n      0x0100\n      exp\n      swap1\n      div\n      0xff\n      and\n      dup2\n      jump\t// out\n        /* \"lec.sol\":173:200  uint256 public gas = 1 gwei */\n    tag_24:\n      sload(0x01)\n      dup2\n      jump\t// out\n        /* \"lec.sol\":103:167  address public addr = 0xd9145CCE52D386f254917e481eB44e9943F39138 */\n    tag_27:\n      0x00\n      0x01\n      swap1\n      sload\n      swap1\n      0x0100\n      exp\n      swap1\n      div\n      0xffffffffffffffffffffffffffffffffffffffff\n      and\n      dup2\n      jump\t// out\n        /* \"#utility.yul\":7:146   */\n    tag_33:\n        /* \"#utility.yul\":53:58   */\n      0x00\n        /* \"#utility.yul\":91:97   */\n      dup2\n        /* \"#utility.yul\":78:98   */\n      calldataload\n        /* \"#utility.yul\":69:98   */\n      swap1\n      pop\n        /* \"#utility.yul\":107:140   */\n      tag_35\n        /* \"#utility.yul\":134:139   */\n      dup2\n        /* \"#utility.yul\":107:140   */\n      tag_36\n      jump\t// in\n    tag_35:\n        /* \"#utility.yul\":7:146   */\n      swap3\n      swap2\n      pop\n      pop\n      jump\t// out\n        /* \"#utility.yul\":152:481   */\n    tag_17:\n        /* \"#utility.yul\":211:217   */\n      0x00\n        /* \"#utility.yul\":260:262   */\n      0x20\n        /* \"#utility.yul\":248:257   */\n      dup3\n        /* \"#utility.yul\":239:246   */\n      dup5\n        /* \"#utility.yul\":235:258   */\n      sub\n        /* \"#utility.yul\":231:263   */\n      slt\n        /* \"#utility.yul\":228:347   */\n      iszero\n      tag_38\n      jumpi\n        /* \"#utility.yul\":266:345   */\n      tag_39\n      tag_40\n      jump\t// in\n    tag_39:\n        /* \"#utility.yul\":228:347   */\n    tag_38:\n        /* \"#utility.yul\":386:387   */\n      0x00\n        /* \"#utility.yul\":411:464   */\n      tag_41\n        /* \"#utility.yul\":456:463   */\n      dup5\n        /* \"#utility.yul\":447:453   */\n      dup3\n        /* \"#utility.yul\":436:445   */\n      dup6\n        /* \"#utility.yul\":432:454   */\n      add\n        /* \"#utility.yul\":411:464   */\n      tag_33\n      jump\t// in\n    tag_41:\n        /* \"#utility.yul\":401:464   */\n      swap2\n      pop\n        /* \"#utility.yul\":357:474   */\n      pop\n        /* \"#utility.yul\":152:481   */\n      swap3\n      swap2\n      pop\n      pop\n      jump\t// out\n        /* \"#utility.yul\":487:605   */\n    tag_42:\n        /* \"#utility.yul\":574:598   */\n      tag_44\n        /* \"#utility.yul\":592:597   */\n      dup2\n        /* \"#utility.yul\":574:598   */\n      tag_45\n      jump\t// in\n    tag_44:\n        /* \"#utility.yul\":569:572   */\n      dup3\n        /* \"#utility.yul\":562:599   */\n      mstore\n        /* \"#utility.yul\":487:605   */\n      pop\n      pop\n      jump\t// out\n        /* \"#utility.yul\":611:720   */\n    tag_46:\n        /* \"#utility.yul\":692:713   */\n      tag_48\n        /* \"#utility.yul\":707:712   */\n      dup2\n        /* \"#utility.yul\":692:713   */\n      tag_49\n      jump\t// in\n    tag_48:\n        /* \"#utility.yul\":687:690   */\n      dup3\n        /* \"#utility.yul\":680:714   */\n      mstore\n        /* \"#utility.yul\":611:720   */\n      pop\n      pop\n      jump\t// out\n        /* \"#utility.yul\":726:844   */\n    tag_50:\n        /* \"#utility.yul\":813:837   */\n      tag_52\n        /* \"#utility.yul\":831:836   */\n      dup2\n        /* \"#utility.yul\":813:837   */\n      tag_53\n      jump\t// in\n    tag_52:\n        /* \"#utility.yul\":808:811   */\n      dup3\n        /* \"#utility.yul\":801:838   */\n      mstore\n        /* \"#utility.yul\":726:844   */\n      pop\n      pop\n      jump\t// out\n        /* \"#utility.yul\":850:1072   */\n    tag_29:\n        /* \"#utility.yul\":943:947   */\n      0x00\n        /* \"#utility.yul\":981:983   */\n      0x20\n        /* \"#utility.yul\":970:979   */\n      dup3\n        /* \"#utility.yul\":966:984   */\n      add\n        /* \"#utility.yul\":958:984   */\n      swap1\n      pop\n        /* \"#utility.yul\":994:1065   */\n      tag_55\n        /* \"#utility.yul\":1062:1063   */\n      0x00\n        /* \"#utility.yul\":1051:1060   */\n      dup4\n        /* \"#utility.yul\":1047:1064   */\n      add\n        /* \"#utility.yul\":1038:1044   */\n      dup5\n        /* \"#utility.yul\":994:1065   */\n      tag_42\n      jump\t// in\n    tag_55:\n        /* \"#utility.yul\":850:1072   */\n      swap3\n      swap2\n      pop\n      pop\n      jump\t// out\n        /* \"#utility.yul\":1078:1288   */\n    tag_22:\n        /* \"#utility.yul\":1165:1169   */\n      0x00\n        /* \"#utility.yul\":1203:1205   */\n      0x20\n        /* \"#utility.yul\":1192:1201   */\n      dup3\n        /* \"#utility.yul\":1188:1206   */\n      add\n        /* \"#utility.yul\":1180:1206   */\n      swap1\n      pop\n        /* \"#utility.yul\":1216:1281   */\n      tag_57\n        /* \"#utility.yul\":1278:1279   */\n      0x00\n        /* \"#utility.yul\":1267:1276   */\n      dup4\n        /* \"#utility.yul\":1263:1280   */\n      add\n        /* \"#utility.yul\":1254:1260   */\n      dup5\n        /* \"#utility.yul\":1216:1281   */\n      tag_46\n      jump\t// in\n    tag_57:\n        /* \"#utility.yul\":1078:1288   */\n      swap3\n      swap2\n      pop\n      pop\n      jump\t// out\n        /* \"#utility.yul\":1294:1516   */\n    tag_14:\n        /* \"#utility.yul\":1387:1391   */\n      0x00\n        /* \"#utility.yul\":1425:1427   */\n      0x20\n        /* \"#utility.yul\":1414:1423   */\n      dup3\n        /* \"#utility.yul\":1410:1428   */\n      add\n        /* \"#utility.yul\":1402:1428   */\n      swap1\n      pop\n        /* \"#utility.yul\":1438:1509   */\n      tag_59\n        /* \"#utility.yul\":1506:1507   */\n      0x00\n        /* \"#utility.yul\":1495:1504   */\n      dup4\n        /* \"#utility.yul\":1491:1508   */\n      add\n        /* \"#utility.yul\":1482:1488   */\n      dup5\n        /* \"#utility.yul\":1438:1509   */\n      tag_50\n      jump\t// in\n    tag_59:\n        /* \"#utility.yul\":1294:1516   */\n      swap3\n      swap2\n      pop\n      pop\n      jump\t// out\n        /* \"#utility.yul\":1603:1699   */\n    tag_45:\n        /* \"#utility.yul\":1640:1647   */\n      0x00\n        /* \"#utility.yul\":1669:1693   */\n      tag_63\n        /* \"#utility.yul\":1687:1692   */\n      dup3\n        /* \"#utility.yul\":1669:1693   */\n      tag_64\n      jump\t// in\n    tag_63:\n        /* \"#utility.yul\":1658:1693   */\n      swap1\n      pop\n        /* \"#utility.yul\":1603:1699   */\n      swap2\n      swap1\n      pop\n      jump\t// out\n        /* \"#utility.yul\":1705:1795   */\n    tag_49:\n        /* \"#utility.yul\":1739:1746   */\n      0x00\n        /* \"#utility.yul\":1782:1787   */\n      dup2\n        /* \"#utility.yul\":1775:1788   */\n      iszero\n        /* \"#utility.yul\":1768:1789   */\n      iszero\n        /* \"#utility.yul\":1757:1789   */\n      swap1\n      pop\n        /* \"#utility.yul\":1705:1795   */\n      swap2\n      swap1\n      pop\n      jump\t// out\n        /* \"#utility.yul\":1801:1927   */\n    tag_64:\n        /* \"#utility.yul\":1838:1845   */\n      0x00\n        /* \"#utility.yul\":1878:1920   */\n      0xffffffffffffffffffffffffffffffffffffffff\n        /* \"#utility.yul\":1871:1876   */\n      dup3\n        /* \"#utility.yul\":1867:1921   */\n      and\n        /* \"#utility.yul\":1856:1921   */\n      swap1\n      pop\n        /* \"#utility.yul\":1801:1927   */\n      swap2\n      swap1\n      pop\n      jump\t// out\n        /* \"#utility.yul\":1933:2010   */\n    tag_53:\n        /* \"#utility.yul\":1970:1977   */\n      0x00\n        /* \"#utility.yul\":1999:2004   */\n      dup2\n        /* \"#utility.yul\":1988:2004   */\n      swap1\n      pop\n        /* \"#utility.yul\":1933:2010   */\n      swap2\n      swap1\n      pop\n      jump\t// out\n        /* \"#utility.yul\":2139:2256   */\n    tag_40:\n        /* \"#utility.yul\":2248:2249   */\n      0x00\n        /* \"#utility.yul\":2245:2246   */\n      dup1\n        /* \"#utility.yul\":2238:2250   */\n      revert\n        /* \"#utility.yul\":2262:2384   */\n    tag_36:\n        /* \"#utility.yul\":2335:2359   */\n      tag_72\n        /* \"#utility.yul\":2353:2358   */\n      dup2\n        /* \"#utility.yul\":2335:2359   */\n      tag_53\n      jump\t// in\n    tag_72:\n        /* \"#utility.yul\":2328:2333   */\n      dup2\n        /* \"#utility.yul\":2325:2360   */\n      eq\n        /* \"#utility.yul\":2315:2378   */\n      tag_73\n      jumpi\n        /* \"#utility.yul\":2374:2375   */\n      0x00\n        /* \"#utility.yul\":2371:2372   */\n      dup1\n        /* \"#utility.yul\":2364:2376   */\n      revert\n        /* \"#utility.yul\":2315:2378   */\n    tag_73:\n        /* \"#utility.yul\":2262:2384   */\n      pop\n      jump\t// out\n\n    auxdata: 0xa2646970667358221220689851d369c824d3565b0103f5d383c64cd455d112ab7286decf846ac613817964736f6c63430008070033\n}\n",
				"bytecode": {
					"linkReferences": {},
					"object": "608060405260008060006101000a81548160ff02191690831515021790555073d9145cce52d386f254917e481eb44e9943f39138600060016101000a81548173ffffffffffffffffffffffffffffffffffffffff021916908373ffffffffffffffffffffffffffffffffffffffff160217905550633b9aca00600155670de0b6b3a764000060025534801561009357600080fd5b506102f4806100a36000396000f3fe608060405234801561001057600080fd5b50600436106100625760003560e01c806324811914146100675780633d3382bd146100715780634af790011461008f5780634df7e3d0146100ab5780636ca7c216146100c9578063767800de146100e7575b600080fd5b61006f610105565b005b610079610113565b604051610086919061023f565b60405180910390f35b6100a960048036038101906100a491906101af565b610119565b005b6100b361015d565b6040516100c09190610224565b60405180910390f35b6100d161016e565b6040516100de919061023f565b60405180910390f35b6100ef610174565b6040516100fc9190610209565b60405180910390f35b6402540be400600181905550565b60025481565b33600060016101000a81548173ffffffffffffffffffffffffffffffffffffffff021916908373ffffffffffffffffffffffffffffffffffffffff16021790555050565b60008054906101000a900460ff1681565b60015481565b600060019054906101000a900473ffffffffffffffffffffffffffffffffffffffff1681565b6000813590506101a9816102a7565b92915050565b6000602082840312156101c5576101c46102a2565b5b60006101d38482850161019a565b91505092915050565b6101e58161025a565b82525050565b6101f48161026c565b82525050565b61020381610298565b82525050565b600060208201905061021e60008301846101dc565b92915050565b600060208201905061023960008301846101eb565b92915050565b600060208201905061025460008301846101fa565b92915050565b600061026582610278565b9050919050565b60008115159050919050565b600073ffffffffffffffffffffffffffffffffffffffff82169050919050565b6000819050919050565b600080fd5b6102b081610298565b81146102bb57600080fd5b5056fea2646970667358221220689851d369c824d3565b0103f5d383c64cd455d112ab7286decf846ac613817964736f6c63430008070033",
					"opcodes": "PUSH1 0x80 PUSH1 0x40 MSTORE PUSH1 0x0 DUP1 PUSH1 0x0 PUSH2 0x100 EXP DUP2 SLOAD DUP2 PUSH1 0xFF MUL NOT AND SWAP1 DUP4 ISZERO ISZERO MUL OR SWAP1 SSTORE POP PUSH20 0xD9145CCE52D386F254917E481EB44E9943F39138 PUSH1 0x0 PUSH1 0x1 PUSH2 0x100 EXP DUP2 SLOAD DUP2 PUSH20 0xFFFFFFFFFFFFFFFFFFFFFFFFFFFFFFFFFFFFFFFF MUL NOT AND SWAP1 DUP4 PUSH20 0xFFFFFFFFFFFFFFFFFFFFFFFFFFFFFFFFFFFFFFFF AND MUL OR SWAP1 SSTORE POP PUSH4 0x3B9ACA00 PUSH1 0x1 SSTORE PUSH8 0xDE0B6B3A7640000 PUSH1 0x2 SSTORE CALLVALUE DUP1 ISZERO PUSH2 0x93 JUMPI PUSH1 0x0 DUP1 REVERT JUMPDEST POP PUSH2 0x2F4 DUP1 PUSH2 0xA3 PUSH1 0x0 CODECOPY PUSH1 0x0 RETURN INVALID PUSH1 0x80 PUSH1 0x40 MSTORE CALLVALUE DUP1 ISZERO PUSH2 0x10 JUMPI PUSH1 0x0 DUP1 REVERT JUMPDEST POP PUSH1 0x4 CALLDATASIZE LT PUSH2 0x62 JUMPI PUSH1 0x0 CALLDATALOAD PUSH1 0xE0 SHR DUP1 PUSH4 0x24811914 EQ PUSH2 0x67 JUMPI DUP1 PUSH4 0x3D3382BD EQ PUSH2 0x71 JUMPI DUP1 PUSH4 0x4AF79001 EQ PUSH2 0x8F JUMPI DUP1 PUSH4 0x4DF7E3D0 EQ PUSH2 0xAB JUMPI DUP1 PUSH4 0x6CA7C216 EQ PUSH2 0xC9 JUMPI DUP1 PUSH4 0x767800DE EQ PUSH2 0xE7 JUMPI JUMPDEST PUSH1 0x0 DUP1 REVERT JUMPDEST PUSH2 0x6F PUSH2 0x105 JUMP JUMPDEST STOP JUMPDEST PUSH2 0x79 PUSH2 0x113 JUMP JUMPDEST PUSH1 0x40 MLOAD PUSH2 0x86 SWAP2 SWAP1 PUSH2 0x23F JUMP JUMPDEST PUSH1 0x40 MLOAD DUP1 SWAP2 SUB SWAP1 RETURN JUMPDEST PUSH2 0xA9 PUSH1 0x4 DUP1 CALLDATASIZE SUB DUP2 ADD SWAP1 PUSH2 0xA4 SWAP2 SWAP1 PUSH2 0x1AF JUMP JUMPDEST PUSH2 0x119 JUMP JUMPDEST STOP JUMPDEST PUSH2 0xB3 PUSH2 0x15D JUMP JUMPDEST PUSH1 0x40 MLOAD PUSH2 0xC0 SWAP2 SWAP1 PUSH2 0x224 JUMP JUMPDEST PUSH1 0x40 MLOAD DUP1 SWAP2 SUB SWAP1 RETURN JUMPDEST PUSH2 0xD1 PUSH2 0x16E JUMP JUMPDEST PUSH1 0x40 MLOAD PUSH2 0xDE SWAP2 SWAP1 PUSH2 0x23F JUMP JUMPDEST PUSH1 0x40 MLOAD DUP1 SWAP2 SUB SWAP1 RETURN JUMPDEST PUSH2 0xEF PUSH2 0x174 JUMP JUMPDEST PUSH1 0x40 MLOAD PUSH2 0xFC SWAP2 SWAP1 PUSH2 0x209 JUMP JUMPDEST PUSH1 0x40 MLOAD DUP1 SWAP2 SUB SWAP1 RETURN JUMPDEST PUSH5 0x2540BE400 PUSH1 0x1 DUP2 SWAP1 SSTORE POP JUMP JUMPDEST PUSH1 0x2 SLOAD DUP2 JUMP JUMPDEST CALLER PUSH1 0x0 PUSH1 0x1 PUSH2 0x100 EXP DUP2 SLOAD DUP2 PUSH20 0xFFFFFFFFFFFFFFFFFFFFFFFFFFFFFFFFFFFFFFFF MUL NOT AND SWAP1 DUP4 PUSH20 0xFFFFFFFFFFFFFFFFFFFFFFFFFFFFFFFFFFFFFFFF AND MUL OR SWAP1 SSTORE POP POP JUMP JUMPDEST PUSH1 0x0 DUP1 SLOAD SWAP1 PUSH2 0x100 EXP SWAP1 DIV PUSH1 0xFF AND DUP2 JUMP JUMPDEST PUSH1 0x1 SLOAD DUP2 JUMP JUMPDEST PUSH1 0x0 PUSH1 0x1 SWAP1 SLOAD SWAP1 PUSH2 0x100 EXP SWAP1 DIV PUSH20 0xFFFFFFFFFFFFFFFFFFFFFFFFFFFFFFFFFFFFFFFF AND DUP2 JUMP JUMPDEST PUSH1 0x0 DUP2 CALLDATALOAD SWAP1 POP PUSH2 0x1A9 DUP2 PUSH2 0x2A7 JUMP JUMPDEST SWAP3 SWAP2 POP POP JUMP JUMPDEST PUSH1 0x0 PUSH1 0x20 DUP3 DUP5 SUB SLT ISZERO PUSH2 0x1C5 JUMPI PUSH2 0x1C4 PUSH2 0x2A2 JUMP JUMPDEST JUMPDEST PUSH1 0x0 PUSH2 0x1D3 DUP5 DUP3 DUP6 ADD PUSH2 0x19A JUMP JUMPDEST SWAP2 POP POP SWAP3 SWAP2 POP POP JUMP JUMPDEST PUSH2 0x1E5 DUP2 PUSH2 0x25A JUMP JUMPDEST DUP3 MSTORE POP POP JUMP JUMPDEST PUSH2 0x1F4 DUP2 PUSH2 0x26C JUMP JUMPDEST DUP3 MSTORE POP POP JUMP JUMPDEST PUSH2 0x203 DUP2 PUSH2 0x298 JUMP JUMPDEST DUP3 MSTORE POP POP JUMP JUMPDEST PUSH1 0x0 PUSH1 0x20 DUP3 ADD SWAP1 POP PUSH2 0x21E PUSH1 0x0 DUP4 ADD DUP5 PUSH2 0x1DC JUMP JUMPDEST SWAP3 SWAP2 POP POP JUMP JUMPDEST PUSH1 0x0 PUSH1 0x20 DUP3 ADD SWAP1 POP PUSH2 0x239 PUSH1 0x0 DUP4 ADD DUP5 PUSH2 0x1EB JUMP JUMPDEST SWAP3 SWAP2 POP POP JUMP JUMPDEST PUSH1 0x0 PUSH1 0x20 DUP3 ADD SWAP1 POP PUSH2 0x254 PUSH1 0x0 DUP4 ADD DUP5 PUSH2 0x1FA JUMP JUMPDEST SWAP3 SWAP2 POP POP JUMP JUMPDEST PUSH1 0x0 PUSH2 0x265 DUP3 PUSH2 0x278 JUMP JUMPDEST SWAP1 POP SWAP2 SWAP1 POP JUMP JUMPDEST PUSH1 0x0 DUP2 ISZERO ISZERO SWAP1 POP SWAP2 SWAP1 POP JUMP JUMPDEST PUSH1 0x0 PUSH20 0xFFFFFFFFFFFFFFFFFFFFFFFFFFFFFFFFFFFFFFFF DUP3 AND SWAP1 POP SWAP2 SWAP1 POP JUMP JUMPDEST PUSH1 0x0 DUP2 SWAP1 POP SWAP2 SWAP1 POP JUMP JUMPDEST PUSH1 0x0 DUP1 REVERT JUMPDEST PUSH2 0x2B0 DUP2 PUSH2 0x298 JUMP JUMPDEST DUP2 EQ PUSH2 0x2BB JUMPI PUSH1 0x0 DUP1 REVERT JUMPDEST POP JUMP INVALID LOG2 PUSH5 0x6970667358 0x22 SLT KECCAK256 PUSH9 0x9851D369C824D3565B ADD SUB CREATE2 0xD3 DUP4 0xC6 0x4C 0xD4 SSTORE 0xD1 SLT 0xAB PUSH19 0x86DECF846AC613817964736F6C634300080700 CALLER "
				},
				"gasEstimates": {
					"creation": {
						"codeDepositCost": "151200",
						"executionCost": "92992",
						"totalCost": "244192"
					},
					"external": {
						"addr()": "2652",
						"ags1()": "2429",
						"b()": "2512",
						"gas()": "2495",
						"setGas()": "22236",
						"setGas1(uint256)": "24744"
					}
				},
				"methodIdentifiers": {
					"addr()": "767800de",
					"ags1()": "3d3382bd",
					"b()": "4df7e3d0",
					"gas()": "6ca7c216",
					"setGas()": "24811914",
					"setGas1(uint256)": "4af79001"
				}
			},
			"storageLayout": {
				"storage": [
					{
						"astId": 4,
						"contract": "lec.sol:lec",
						"label": "b",
						"offset": 0,
						"slot": "0",
						"type": "t_bool"
					},
					{
						"astId": 7,
						"contract": "lec.sol:lec",
						"label": "addr",
						"offset": 1,
						"slot": "0",
						"type": "t_address"
					},
					{
						"astId": 10,
						"contract": "lec.sol:lec",
						"label": "gas",
						"offset": 0,
						"slot": "1",
						"type": "t_uint256"
					},
					{
						"astId": 13,
						"contract": "lec.sol:lec",
						"label": "ags1",
						"offset": 0,
						"slot": "2",
						"type": "t_uint256"
					}
				],
				"types": {
					"t_address": {
						"encoding": "inplace",
						"label": "address",
						"numberOfBytes": "20"
					},
					"t_bool": {
						"encoding": "inplace",
						"label": "bool",
						"numberOfBytes": "1"
					},
					"t_uint256": {
						"encoding": "inplace",
						"label": "uint256",
						"numberOfBytes": "32"
					}
				}
			},
			"userdoc": {
				"kind": "user",
				"methods": {},
				"version": 1
			}
		}
	}
}