{
	"lec.sol": {
		"lec": {
			"abi": [
				{
					"inputs": [],
					"name": "addr",
					"outputs": [
						{
							"internalType": "address",
							"name": "",
							"type": "address"
						}
					],
					"stateMutability": "view",
					"type": "function"
				},
				{
					"inputs": [],
					"name": "ags1",
					"outputs": [
						{
							"internalType": "uint256",
							"name": "",
							"type": "uint256"
						}
					],
					"stateMutability": "view",
					"type": "function"
				},
				{
					"inputs": [],
					"name": "b",
					"outputs": [
						{
							"internalType": "bool",
							"name": "",
							"type": "bool"
						}
					],
					"stateMutability": "view",
					"type": "function"
				},
				{
					"inputs": [],
					"name": "gas",
					"outputs": [
						{
							"internalType": "uint256",
							"name": "",
							"type": "uint256"
						}
					],
					"stateMutability": "view",
					"type": "function"
				},
				{
					"inputs": [],
					"name": "setGas",
					"outputs": [],
					"stateMutability": "nonpayable",
					"type": "function"
				},
				{
					"inputs": [],
					"name": "setGas1",
					"outputs": [],
					"stateMutability": "nonpayable",
					"type": "function"
				}
			],
			"devdoc": {
				"kind": "dev",
				"methods": {},
				"version": 1
			},
			"evm": {
				"assembly": "    /* \"lec.sol\":58:365  contract lec{... */\n  mstore(0x40, 0x80)\n    /* \"lec.sol\":92:97  false */\n  0x00\n    /* \"lec.sol\":76:97  bool public b = false */\n  dup1\n  exp(0x0100, 0x00)\n  dup2\n  sload\n  dup2\n  0xff\n  mul\n  not\n  and\n  swap1\n  dup4\n  iszero\n  iszero\n  mul\n  or\n  swap1\n  sstore\n  pop\n    /* \"lec.sol\":125:167  0xd9145CCE52D386f254917e481eB44e9943F39138 */\n  0xd9145cce52d386f254917e481eb44e9943f39138\n    /* \"lec.sol\":103:167  address public addr = 0xd9145CCE52D386f254917e481eB44e9943F39138 */\n  0x00\n  exp(0x0100, 0x01)\n  dup2\n  sload\n  dup2\n  0xffffffffffffffffffffffffffffffffffffffff\n  mul\n  not\n  and\n  swap1\n  dup4\n  0xffffffffffffffffffffffffffffffffffffffff\n  and\n  mul\n  or\n  swap1\n  sstore\n  pop\n    /* \"lec.sol\":194:200  1 gwei */\n  0x3b9aca00\n    /* \"lec.sol\":173:200  uint256 public gas = 1 gwei */\n  0x01\n  sstore\n    /* \"lec.sol\":228:235  1 ether */\n  0x0de0b6b3a7640000\n    /* \"lec.sol\":206:235  uint256 public ags1 = 1 ether */\n  0x02\n  sstore\n    /* \"lec.sol\":58:365  contract lec{... */\n  callvalue\n  dup1\n  iszero\n  tag_1\n  jumpi\n  0x00\n  dup1\n  revert\ntag_1:\n  pop\n  dataSize(sub_0)\n  dup1\n  dataOffset(sub_0)\n  0x00\n  codecopy\n  0x00\n  return\nstop\n\nsub_0: assembly {\n        /* \"lec.sol\":58:365  contract lec{... */\n      mstore(0x40, 0x80)\n      callvalue\n      dup1\n      iszero\n      tag_1\n      jumpi\n      0x00\n      dup1\n      revert\n    tag_1:\n      pop\n      jumpi(tag_2, lt(calldatasize, 0x04))\n      shr(0xe0, calldataload(0x00))\n      dup1\n      0x24811914\n      eq\n      tag_3\n      jumpi\n      dup1\n      0x3d3382bd\n      eq\n      tag_4\n      jumpi\n      dup1\n      0x4df7e3d0\n      eq\n      tag_5\n      jumpi\n      dup1\n      0x6ca7c216\n      eq\n      tag_6\n      jumpi\n      dup1\n      0x767800de\n      eq\n      tag_7\n      jumpi\n      dup1\n      0xe93544d5\n      eq\n      tag_8\n      jumpi\n    tag_2:\n      0x00\n      dup1\n      revert\n        /* \"lec.sol\":242:296  function setGas() public{... */\n    tag_3:\n      tag_9\n      tag_10\n      jump\t// in\n    tag_9:\n      stop\n        /* \"lec.sol\":206:235  uint256 public ags1 = 1 ether */\n    tag_4:\n      tag_11\n      tag_12\n      jump\t// in\n    tag_11:\n      mload(0x40)\n      tag_13\n      swap2\n      swap1\n      tag_14\n      jump\t// in\n    tag_13:\n      mload(0x40)\n      dup1\n      swap2\n      sub\n      swap1\n      return\n        /* \"lec.sol\":76:97  bool public b = false */\n    tag_5:\n      tag_15\n      tag_16\n      jump\t// in\n    tag_15:\n      mload(0x40)\n      tag_17\n      swap2\n      swap1\n      tag_18\n      jump\t// in\n    tag_17:\n      mload(0x40)\n      dup1\n      swap2\n      sub\n      swap1\n      return\n        /* \"lec.sol\":173:200  uint256 public gas = 1 gwei */\n    tag_6:\n      tag_19\n      tag_20\n      jump\t// in\n    tag_19:\n      mload(0x40)\n      tag_21\n      swap2\n      swap1\n      tag_14\n      jump\t// in\n    tag_21:\n      mload(0x40)\n      dup1\n      swap2\n      sub\n      swap1\n      return\n        /* \"lec.sol\":103:167  address public addr = 0xd9145CCE52D386f254917e481eB44e9943F39138 */\n    tag_7:\n      tag_22\n      tag_23\n      jump\t// in\n    tag_22:\n      mload(0x40)\n      tag_24\n      swap2\n      swap1\n      tag_25\n      jump\t// in\n    tag_24:\n      mload(0x40)\n      dup1\n      swap2\n      sub\n      swap1\n      return\n        /* \"lec.sol\":301:360  function setGas1() public{... */\n    tag_8:\n      tag_26\n      tag_27\n      jump\t// in\n    tag_26:\n      stop\n        /* \"lec.sol\":242:296  function setGas() public{... */\n    tag_10:\n        /* \"lec.sol\":282:289  10 gwei */\n      0x02540be400\n        /* \"lec.sol\":276:279  gas */\n      0x01\n        /* \"lec.sol\":276:289  gas = 10 gwei */\n      dup2\n      swap1\n      sstore\n      pop\n        /* \"lec.sol\":242:296  function setGas() public{... */\n      jump\t// out\n        /* \"lec.sol\":206:235  uint256 public ags1 = 1 ether */\n    tag_12:\n      sload(0x02)\n      dup2\n      jump\t// out\n        /* \"lec.sol\":76:97  bool public b = false */\n    tag_16:\n      0x00\n      dup1\n      sload\n      swap1\n      0x0100\n      exp\n      swap1\n      div\n      0xff\n      and\n      dup2\n      jump\t// out\n        /* \"lec.sol\":173:200  uint256 public gas = 1 gwei */\n    tag_20:\n      sload(0x01)\n      dup2\n      jump\t// out\n        /* \"lec.sol\":103:167  address public addr = 0xd9145CCE52D386f254917e481eB44e9943F39138 */\n    tag_23:\n      0x00\n      0x01\n      swap1\n      sload\n      swap1\n      0x0100\n      exp\n      swap1\n      div\n      0xffffffffffffffffffffffffffffffffffffffff\n      and\n      dup2\n      jump\t// out\n        /* \"lec.sol\":301:360  function setGas1() public{... */\n    tag_27:\n        /* \"lec.sol\":343:353  msg.sender */\n      caller\n        /* \"lec.sol\":336:340  addr */\n      0x00\n      0x01\n        /* \"lec.sol\":336:353  addr = msg.sender */\n      0x0100\n      exp\n      dup2\n      sload\n      dup2\n      0xffffffffffffffffffffffffffffffffffffffff\n      mul\n      not\n      and\n      swap1\n      dup4\n      0xffffffffffffffffffffffffffffffffffffffff\n      and\n      mul\n      or\n      swap1\n      sstore\n      pop\n        /* \"lec.sol\":301:360  function setGas1() public{... */\n      jump\t// out\n        /* \"#utility.yul\":7:125   */\n    tag_31:\n        /* \"#utility.yul\":94:118   */\n      tag_33\n        /* \"#utility.yul\":112:117   */\n      dup2\n        /* \"#utility.yul\":94:118   */\n      tag_34\n      jump\t// in\n    tag_33:\n        /* \"#utility.yul\":89:92   */\n      dup3\n        /* \"#utility.yul\":82:119   */\n      mstore\n        /* \"#utility.yul\":7:125   */\n      pop\n      pop\n      jump\t// out\n        /* \"#utility.yul\":131:240   */\n    tag_35:\n        /* \"#utility.yul\":212:233   */\n      tag_37\n        /* \"#utility.yul\":227:232   */\n      dup2\n        /* \"#utility.yul\":212:233   */\n      tag_38\n      jump\t// in\n    tag_37:\n        /* \"#utility.yul\":207:210   */\n      dup3\n        /* \"#utility.yul\":200:234   */\n      mstore\n        /* \"#utility.yul\":131:240   */\n      pop\n      pop\n      jump\t// out\n        /* \"#utility.yul\":246:364   */\n    tag_39:\n        /* \"#utility.yul\":333:357   */\n      tag_41\n        /* \"#utility.yul\":351:356   */\n      dup2\n        /* \"#utility.yul\":333:357   */\n      tag_42\n      jump\t// in\n    tag_41:\n        /* \"#utility.yul\":328:331   */\n      dup3\n        /* \"#utility.yul\":321:358   */\n      mstore\n        /* \"#utility.yul\":246:364   */\n      pop\n      pop\n      jump\t// out\n        /* \"#utility.yul\":370:592   */\n    tag_25:\n        /* \"#utility.yul\":463:467   */\n      0x00\n        /* \"#utility.yul\":501:503   */\n      0x20\n        /* \"#utility.yul\":490:499   */\n      dup3\n        /* \"#utility.yul\":486:504   */\n      add\n        /* \"#utility.yul\":478:504   */\n      swap1\n      pop\n        /* \"#utility.yul\":514:585   */\n      tag_44\n        /* \"#utility.yul\":582:583   */\n      0x00\n        /* \"#utility.yul\":571:580   */\n      dup4\n        /* \"#utility.yul\":567:584   */\n      add\n        /* \"#utility.yul\":558:564   */\n      dup5\n        /* \"#utility.yul\":514:585   */\n      tag_31\n      jump\t// in\n    tag_44:\n        /* \"#utility.yul\":370:592   */\n      swap3\n      swap2\n      pop\n      pop\n      jump\t// out\n        /* \"#utility.yul\":598:808   */\n    tag_18:\n        /* \"#utility.yul\":685:689   */\n      0x00\n        /* \"#utility.yul\":723:725   */\n      0x20\n        /* \"#utility.yul\":712:721   */\n      dup3\n        /* \"#utility.yul\":708:726   */\n      add\n        /* \"#utility.yul\":700:726   */\n      swap1\n      pop\n        /* \"#utility.yul\":736:801   */\n      tag_46\n        /* \"#utility.yul\":798:799   */\n      0x00\n        /* \"#utility.yul\":787:796   */\n      dup4\n        /* \"#utility.yul\":783:800   */\n      add\n        /* \"#utility.yul\":774:780   */\n      dup5\n        /* \"#utility.yul\":736:801   */\n      tag_35\n      jump\t// in\n    tag_46:\n        /* \"#utility.yul\":598:808   */\n      swap3\n      swap2\n      pop\n      pop\n      jump\t// out\n        /* \"#utility.yul\":814:1036   */\n    tag_14:\n        /* \"#utility.yul\":907:911   */\n      0x00\n        /* \"#utility.yul\":945:947   */\n      0x20\n        /* \"#utility.yul\":934:943   */\n      dup3\n        /* \"#utility.yul\":930:948   */\n      add\n        /* \"#utility.yul\":922:948   */\n      swap1\n      pop\n        /* \"#utility.yul\":958:1029   */\n      tag_48\n        /* \"#utility.yul\":1026:1027   */\n      0x00\n        /* \"#utility.yul\":1015:1024   */\n      dup4\n        /* \"#utility.yul\":1011:1028   */\n      add\n        /* \"#utility.yul\":1002:1008   */\n      dup5\n        /* \"#utility.yul\":958:1029   */\n      tag_39\n      jump\t// in\n    tag_48:\n        /* \"#utility.yul\":814:1036   */\n      swap3\n      swap2\n      pop\n      pop\n      jump\t// out\n        /* \"#utility.yul\":1042:1138   */\n    tag_34:\n        /* \"#utility.yul\":1079:1086   */\n      0x00\n        /* \"#utility.yul\":1108:1132   */\n      tag_50\n        /* \"#utility.yul\":1126:1131   */\n      dup3\n        /* \"#utility.yul\":1108:1132   */\n      tag_51\n      jump\t// in\n    tag_50:\n        /* \"#utility.yul\":1097:1132   */\n      swap1\n      pop\n        /* \"#utility.yul\":1042:1138   */\n      swap2\n      swap1\n      pop\n      jump\t// out\n        /* \"#utility.yul\":1144:1234   */\n    tag_38:\n        /* \"#utility.yul\":1178:1185   */\n      0x00\n        /* \"#utility.yul\":1221:1226   */\n      dup2\n        /* \"#utility.yul\":1214:1227   */\n      iszero\n        /* \"#utility.yul\":1207:1228   */\n      iszero\n        /* \"#utility.yul\":1196:1228   */\n      swap1\n      pop\n        /* \"#utility.yul\":1144:1234   */\n      swap2\n      swap1\n      pop\n      jump\t// out\n        /* \"#utility.yul\":1240:1366   */\n    tag_51:\n        /* \"#utility.yul\":1277:1284   */\n      0x00\n        /* \"#utility.yul\":1317:1359   */\n      0xffffffffffffffffffffffffffffffffffffffff\n        /* \"#utility.yul\":1310:1315   */\n      dup3\n        /* \"#utility.yul\":1306:1360   */\n      and\n        /* \"#utility.yul\":1295:1360   */\n      swap1\n      pop\n        /* \"#utility.yul\":1240:1366   */\n      swap2\n      swap1\n      pop\n      jump\t// out\n        /* \"#utility.yul\":1372:1449   */\n    tag_42:\n        /* \"#utility.yul\":1409:1416   */\n      0x00\n        /* \"#utility.yul\":1438:1443   */\n      dup2\n        /* \"#utility.yul\":1427:1443   */\n      swap1\n      pop\n        /* \"#utility.yul\":1372:1449   */\n      swap2\n      swap1\n      pop\n      jump\t// out\n\n    auxdata: 0xa26469706673582212208f8caba8c27f446ddaba7d6fb1b3a597950fe1d8e9e648b528207ea88796b50164736f6c63430008070033\n}\n",
				"bytecode": {
					"linkReferences": {},
					"object": "608060405260008060006101000a81548160ff02191690831515021790555073d9145cce52d386f254917e481eb44e9943f39138600060016101000a81548173ffffffffffffffffffffffffffffffffffffffff021916908373ffffffffffffffffffffffffffffffffffffffff160217905550633b9aca00600155670de0b6b3a764000060025534801561009357600080fd5b50610283806100a36000396000f3fe608060405234801561001057600080fd5b50600436106100625760003560e01c806324811914146100675780633d3382bd146100715780634df7e3d01461008f5780636ca7c216146100ad578063767800de146100cb578063e93544d5146100e9575b600080fd5b61006f6100f3565b005b610079610101565b60405161008691906101ea565b60405180910390f35b610097610107565b6040516100a491906101cf565b60405180910390f35b6100b5610118565b6040516100c291906101ea565b60405180910390f35b6100d361011e565b6040516100e091906101b4565b60405180910390f35b6100f1610144565b005b6402540be400600181905550565b60025481565b60008054906101000a900460ff1681565b60015481565b600060019054906101000a900473ffffffffffffffffffffffffffffffffffffffff1681565b33600060016101000a81548173ffffffffffffffffffffffffffffffffffffffff021916908373ffffffffffffffffffffffffffffffffffffffff160217905550565b61019081610205565b82525050565b61019f81610217565b82525050565b6101ae81610243565b82525050565b60006020820190506101c96000830184610187565b92915050565b60006020820190506101e46000830184610196565b92915050565b60006020820190506101ff60008301846101a5565b92915050565b600061021082610223565b9050919050565b60008115159050919050565b600073ffffffffffffffffffffffffffffffffffffffff82169050919050565b600081905091905056fea26469706673582212208f8caba8c27f446ddaba7d6fb1b3a597950fe1d8e9e648b528207ea88796b50164736f6c63430008070033",
					"opcodes": "PUSH1 0x80 PUSH1 0x40 MSTORE PUSH1 0x0 DUP1 PUSH1 0x0 PUSH2 0x100 EXP DUP2 SLOAD DUP2 PUSH1 0xFF MUL NOT AND SWAP1 DUP4 ISZERO ISZERO MUL OR SWAP1 SSTORE POP PUSH20 0xD9145CCE52D386F254917E481EB44E9943F39138 PUSH1 0x0 PUSH1 0x1 PUSH2 0x100 EXP DUP2 SLOAD DUP2 PUSH20 0xFFFFFFFFFFFFFFFFFFFFFFFFFFFFFFFFFFFFFFFF MUL NOT AND SWAP1 DUP4 PUSH20 0xFFFFFFFFFFFFFFFFFFFFFFFFFFFFFFFFFFFFFFFF AND MUL OR SWAP1 SSTORE POP PUSH4 0x3B9ACA00 PUSH1 0x1 SSTORE PUSH8 0xDE0B6B3A7640000 PUSH1 0x2 SSTORE CALLVALUE DUP1 ISZERO PUSH2 0x93 JUMPI PUSH1 0x0 DUP1 REVERT JUMPDEST POP PUSH2 0x283 DUP1 PUSH2 0xA3 PUSH1 0x0 CODECOPY PUSH1 0x0 RETURN INVALID PUSH1 0x80 PUSH1 0x40 MSTORE CALLVALUE DUP1 ISZERO PUSH2 0x10 JUMPI PUSH1 0x0 DUP1 REVERT JUMPDEST POP PUSH1 0x4 CALLDATASIZE LT PUSH2 0x62 JUMPI PUSH1 0x0 CALLDATALOAD PUSH1 0xE0 SHR DUP1 PUSH4 0x24811914 EQ PUSH2 0x67 JUMPI DUP1 PUSH4 0x3D3382BD EQ PUSH2 0x71 JUMPI DUP1 PUSH4 0x4DF7E3D0 EQ PUSH2 0x8F JUMPI DUP1 PUSH4 0x6CA7C216 EQ PUSH2 0xAD JUMPI DUP1 PUSH4 0x767800DE EQ PUSH2 0xCB JUMPI DUP1 PUSH4 0xE93544D5 EQ PUSH2 0xE9 JUMPI JUMPDEST PUSH1 0x0 DUP1 REVERT JUMPDEST PUSH2 0x6F PUSH2 0xF3 JUMP JUMPDEST STOP JUMPDEST PUSH2 0x79 PUSH2 0x101 JUMP JUMPDEST PUSH1 0x40 MLOAD PUSH2 0x86 SWAP2 SWAP1 PUSH2 0x1EA JUMP JUMPDEST PUSH1 0x40 MLOAD DUP1 SWAP2 SUB SWAP1 RETURN JUMPDEST PUSH2 0x97 PUSH2 0x107 JUMP JUMPDEST PUSH1 0x40 MLOAD PUSH2 0xA4 SWAP2 SWAP1 PUSH2 0x1CF JUMP JUMPDEST PUSH1 0x40 MLOAD DUP1 SWAP2 SUB SWAP1 RETURN JUMPDEST PUSH2 0xB5 PUSH2 0x118 JUMP JUMPDEST PUSH1 0x40 MLOAD PUSH2 0xC2 SWAP2 SWAP1 PUSH2 0x1EA JUMP JUMPDEST PUSH1 0x40 MLOAD DUP1 SWAP2 SUB SWAP1 RETURN JUMPDEST PUSH2 0xD3 PUSH2 0x11E JUMP JUMPDEST PUSH1 0x40 MLOAD PUSH2 0xE0 SWAP2 SWAP1 PUSH2 0x1B4 JUMP JUMPDEST PUSH1 0x40 MLOAD DUP1 SWAP2 SUB SWAP1 RETURN JUMPDEST PUSH2 0xF1 PUSH2 0x144 JUMP JUMPDEST STOP JUMPDEST PUSH5 0x2540BE400 PUSH1 0x1 DUP2 SWAP1 SSTORE POP JUMP JUMPDEST PUSH1 0x2 SLOAD DUP2 JUMP JUMPDEST PUSH1 0x0 DUP1 SLOAD SWAP1 PUSH2 0x100 EXP SWAP1 DIV PUSH1 0xFF AND DUP2 JUMP JUMPDEST PUSH1 0x1 SLOAD DUP2 JUMP JUMPDEST PUSH1 0x0 PUSH1 0x1 SWAP1 SLOAD SWAP1 PUSH2 0x100 EXP SWAP1 DIV PUSH20 0xFFFFFFFFFFFFFFFFFFFFFFFFFFFFFFFFFFFFFFFF AND DUP2 JUMP JUMPDEST CALLER PUSH1 0x0 PUSH1 0x1 PUSH2 0x100 EXP DUP2 SLOAD DUP2 PUSH20 0xFFFFFFFFFFFFFFFFFFFFFFFFFFFFFFFFFFFFFFFF MUL NOT AND SWAP1 DUP4 PUSH20 0xFFFFFFFFFFFFFFFFFFFFFFFFFFFFFFFFFFFFFFFF AND MUL OR SWAP1 SSTORE POP JUMP JUMPDEST PUSH2 0x190 DUP2 PUSH2 0x205 JUMP JUMPDEST DUP3 MSTORE POP POP JUMP JUMPDEST PUSH2 0x19F DUP2 PUSH2 0x217 JUMP JUMPDEST DUP3 MSTORE POP POP JUMP JUMPDEST PUSH2 0x1AE DUP2 PUSH2 0x243 JUMP JUMPDEST DUP3 MSTORE POP POP JUMP JUMPDEST PUSH1 0x0 PUSH1 0x20 DUP3 ADD SWAP1 POP PUSH2 0x1C9 PUSH1 0x0 DUP4 ADD DUP5 PUSH2 0x187 JUMP JUMPDEST SWAP3 SWAP2 POP POP JUMP JUMPDEST PUSH1 0x0 PUSH1 0x20 DUP3 ADD SWAP1 POP PUSH2 0x1E4 PUSH1 0x0 DUP4 ADD DUP5 PUSH2 0x196 JUMP JUMPDEST SWAP3 SWAP2 POP POP JUMP JUMPDEST PUSH1 0x0 PUSH1 0x20 DUP3 ADD SWAP1 POP PUSH2 0x1FF PUSH1 0x0 DUP4 ADD DUP5 PUSH2 0x1A5 JUMP JUMPDEST SWAP3 SWAP2 POP POP JUMP JUMPDEST PUSH1 0x0 PUSH2 0x210 DUP3 PUSH2 0x223 JUMP JUMPDEST SWAP1 POP SWAP2 SWAP1 POP JUMP JUMPDEST PUSH1 0x0 DUP2 ISZERO ISZERO SWAP1 POP SWAP2 SWAP1 POP JUMP JUMPDEST PUSH1 0x0 PUSH20 0xFFFFFFFFFFFFFFFFFFFFFFFFFFFFFFFFFFFFFFFF DUP3 AND SWAP1 POP SWAP2 SWAP1 POP JUMP JUMPDEST PUSH1 0x0 DUP2 SWAP1 POP SWAP2 SWAP1 POP JUMP INVALID LOG2 PUSH5 0x6970667358 0x22 SLT KECCAK256 DUP16 DUP13 0xAB 0xA8 0xC2 PUSH32 0x446DDABA7D6FB1B3A597950FE1D8E9E648B528207EA88796B50164736F6C6343 STOP ADDMOD SMOD STOP CALLER "
				},
				"gasEstimates": {
					"creation": {
						"codeDepositCost": "128600",
						"executionCost": "92973",
						"totalCost": "221573"
					},
					"external": {
						"addr()": "2630",
						"ags1()": "2429",
						"b()": "2490",
						"gas()": "2473",
						"setGas()": "22236",
						"setGas1()": "24548"
					}
				},
				"methodIdentifiers": {
					"addr()": "767800de",
					"ags1()": "3d3382bd",
					"b()": "4df7e3d0",
					"gas()": "6ca7c216",
					"setGas()": "24811914",
					"setGas1()": "e93544d5"
				}
			},
			"storageLayout": {
				"storage": [
					{
						"astId": 4,
						"contract": "lec.sol:lec",
						"label": "b",
						"offset": 0,
						"slot": "0",
						"type": "t_bool"
					},
					{
						"astId": 7,
						"contract": "lec.sol:lec",
						"label": "addr",
						"offset": 1,
						"slot": "0",
						"type": "t_address"
					},
					{
						"astId": 10,
						"contract": "lec.sol:lec",
						"label": "gas",
						"offset": 0,
						"slot": "1",
						"type": "t_uint256"
					},
					{
						"astId": 13,
						"contract": "lec.sol:lec",
						"label": "ags1",
						"offset": 0,
						"slot": "2",
						"type": "t_uint256"
					}
				],
				"types": {
					"t_address": {
						"encoding": "inplace",
						"label": "address",
						"numberOfBytes": "20"
					},
					"t_bool": {
						"encoding": "inplace",
						"label": "bool",
						"numberOfBytes": "1"
					},
					"t_uint256": {
						"encoding": "inplace",
						"label": "uint256",
						"numberOfBytes": "32"
					}
				}
			},
			"userdoc": {
				"kind": "user",
				"methods": {},
				"version": 1
			}
		}
	}
}